S00C00006D61696E2E7372656373
S113000008F4FF1F8D0B0000F10B0000F10B000042
S113001000000000000000000000000000000000DC
S1130020000000000000000000000000F10B0000D0
S11300300000000000000000F10B0000F10B0000C4
S11300408D0B00008D0B00008D0B00008D0B00004C
S1130050000000008D0B00008D0B00008D0B0000D4
S11300608D0B00008D0B00008D0B00008D0B00002C
S11300708D0B00008D0B00008D0B00008D0B00001C
S11300808D0B00008D0B00008D0B00008D0B00000C
S11300908D0B00008D0B00008D0B00000000000094
S11300A08D0B00008D0B00008D0B00008D0B0000EC
S11300B08D0B0000000000008D0B00008D0B000074
S113041084B090B500AF3C1C0C3420606160A260D5
S1130420E3603B6C002B23D0324B3A6C1A60324AA7
S11304303149C0235B00CB58802149021943C023B2
S11304405B00D1502C4B2C4A1268802149020A438C
S11304501A60294A2849C4239B00C95830230C2018
S1130460C019C3181B789B011943C4239B00D150A6
S1130470224B3A1C0C3252685A61204B3A1C0C3203
S113048012681A611D4B3A1C0C3292689A621B4B1B
S11304903A1C0C32D268DA62184B3A1C0C321269DC
S11304A01A633B1C28331B78FF2B0DD03B1C0C33E9
S11304B05A693B1C2833197803230B401343042245
S11304C01A433B1C0C335A610C4B3A1C0C325269D4
S11304D05A630A4B3A6B5A60084B7A6B9A60074B23
S11304E0BA6BDA60054BFA6A1A60BD4690BC08BC68
S11304F004B0184700F0FF1F00E100E000B0024024
S113050084B0B0B588B000AF3C1C3034206061606A
S1130510A260E3600023FB613B1C00221A603B1CC9
S113052000225A603B1C00229A603B1C0022DA60C5
S11305303B1C00221A613B1C00225A613B1C002216
S11305409A61002440255E4B3A1C303212681A61CD
S11305505B4B3A1C303252685A61594B3A1C303268
S1130560126940218A431A6356E0554B1F221A60D0
S1130570534B00225A63524B514A526B80210A4317
S11305805A63C0464E4B1A6880231340FAD04C4B32
S11305905A6B4023134007D0494B494A526B4021C0
S11305A00A435A63012383E0454B9B6B9BB21BB206
S11305B0FA69D318FB613B1C1A68414BDB6DD218F6
S11305C03B1C1A603B1C5A683D4B9B6DD2183B1C6C
S11305D05A603B1C9A683A4B5B6DD2183B1C9A607C
S11305E03B1CDA68364B1B6DD2183B1CDA603B1C93
S11305F01A69334BDB6CD2183B1C1A613B1C5A69D9
S11306002F4B9B6CD2183B1C5A613B1C9A692C4B98
S11306105B6CD2183B1C9A61231C5A1C94B2AB42EB
S1130620A3D3FB699B111A1CFB6C1A603B1C1B684F
S11306309A09FB6C5A613B1C5B689A09FB6C9A61D2
S11306403B1C9B689A09FB6CDA613B1CDB689A09CA
S1130650FB6C1A623B1C1B699A09FB6C5A623B1CBB
S11306605B699A09FB6C1A613B1C9B699A09FB6CD8
S1130670DA603B1C1A683B1C5B68D2183B1C9B6805
S1130680D2183B1CDB68D2183B1C1B69D2183B1CDC
S11306905B69D318FB61FB69DB11802212021343EF
S11306A01A1CFB6C5A60FB6C181C00F00BF800233E
S11306B0181CBD4608B0B0BC08BC04B01847C046FE
S11306C000B0024080B582B000AF7860134B7A6806
S11306D05269DA65114B7A6892699A650F4B7A68A8
S11306E0D2695A650D4B7A68126A1A650B4B7A689F
S11306F0526ADA64094B7A6812699A64074B7A6819
S1130700D2685A64054B7A685268DA63034B7A6894
S113071012689A63BD4602B080BDC04600B0024074
S113072080B500AF1E4B1B68002B37D01D4B1A68D9
S11307308023134008D01A4B1A681A4B9B699BB24A
S11307401BB20120191C9047164B5A688023134092
S113075008D0134B1A68134BDB699BB21BB20220FF
S1130760191C90470F4B9A688023134008D00C4BF8
S11307701A680C4B1B6A9BB21BB20420191C9047CD
S1130780084BDA688023134008D0054B1A68054BE0
S11307905B6A9BB21BB20820191C9047BD4680BD02
S11307A000F0FF1F00B00240B0B5FAB00AAFD04964
S11307B0D04BE0204000C019C318CF4A31CA31C31E
S11307C031CA31C331CA31C312681A60C94BE0223D
S11307D05200D219D3181B680B60C549C74BE024DB
S11307E06400E419E318C44A31CA31C331CA31C3BD
S11307F031CA31C312681A60C04BE0256D00ED198F
S1130800EB185B684B60BA49BD4BE0204000C0194F
S1130810C318B94A31CA31C331CA31C331CA31C329
S113082012681A60B64BE0225200D219D3189A68A3
S1130830B44BCA50AE49B44BE0246400E419E31845
S1130840AD4A31CA31C331CA31C331CA31C3126866
S11308501A60AD4BE0256D00ED19EB18DB68AB4A6F
S11308601A43AB4BCA50A249AA4BE0204000C0191E
S1130870C318A14A31CA31C331CA31C331CA31C3E1
S113088012681A60A34BE0225200D219D3181A69D5
S1130890A14BCA5096493B1CCC33974A31CA31C349
S11308A031CA31C331CA31C312681A603B1CCC331C
S11308B05B69802212061A43984BCA508C493B1C30
S11308C0F4338D4A31CA31C331CA31C331CA31C359
S11308D012681A603B1CF4339A6982235B01CA5084
S11308E083498E225200BB18834A31CA31C331CAAC
S11308F031C331CA31C312681A608E225200BB1848
S1130900DA69874BCA507A49A22464003B197A4AAF
S113091031CA31C331CA31C331CA31C312681A6012
S1130920A2256D007B191A6A7E4BCA507049B62005
S113093040003B18704A31CA31C331CA31C331CA8D
S113094031C312681A60B6225200BB185A6A764B39
S1130950CA50CA2464003B1900221A6000225A605B
S113096000229A600022DA6000221A6100225A6191
S113097000229A61CA256D007B197C221A60CA2064
S113098040003B1804225A601323D8214900C91996
S11309900B601F23DA225200D21913601F23DC24B8
S11309A06400E41923601F23DE256D00ED192B601C
S11309B0CA2040003B1803220392D8214900C919D8
S11309C00A680492DA246400E41922680592DC259A
S11309D06D00ED192A680692DE204000C0190268F5
S11309E0079200220892002209926A46191C1031CB
S11309F031C931C2186859689A68DB68FFF708FD85
S1130A004A4B181C00F0B4F8494B802252005A613A
S1130A10484B802252005A60474B802252005A6051
S1130A20464B802252005A60454B802252001A6085
S1130A30444B444A127DD2B220210A43D2B21A75E1
S1130A40414B414A127DD2B202210A43D2B21A75F5
S1130A503E4B3E4A127DD2B202210A43D2B21A75EB
S1130A603B4B3B4A127DD2B202210A43D2B21A75E1
S1130A70384B384A127DD2B201210A43D2B21A75D8
S1130A80354B1A688023134007D0334B9B699AB2C5
S1130A90324B1A80324B13221A60304B1B889AB2A5
S1130AA0304B9A420DD8304B181C00F061F8294B9A
S1130AB000221A702C4B181C00F05AF8254B012206
S1130AC01A70264B1B889AB2FA23DB009A420ED97D
S1130AD0264B181C00F04CF81E4B00221A70234BB6
S1130AE0181C00F045F81B4B01221A70C8E7C7E731
S1130AF000E0034044FEFFFFD80C00006CFEFFFF43
S1130B0094FEFFFF04100000BCFEFFFF20000078ED
S1130B1034100000E4FEFFFF381000003C10000019
S1130B20441000004C1000006C100000102700005E
S1130B3000A0044000B00440009004400080044041
S1130B4000C0044040F00F4041F00F4002F00F405D
S1130B5003F00F4042F00F4000B0024004F0FF1FCA
S1130B6000B02250CF07000050C30000A08601004F
S1130B7080B582B000AF786002E07B68013B7B60A7
S1130B807B68002BF9DABD4602B080BD80B582B027
S1130B9000AF00F08DF8114B7B60114B3B6007E018
S1130BA03B681A1D3A607A68111D796012681A60F0
S1130BB03A680C4B9A42F3D30B4B3B6004E03B681E
S1130BC01A1D3A6000221A603A68084B9A42F6D31A
S1130BD0FFF7EAFDBD4602B080BDC046000D00002F
S1130BE000F0FF1F00F0FF1F00F0FF1F08F0FF1FC1
S1130BF080B500AFFEE7C04680B500AF264A26495F
S1130C00264BCB58F82149011943244BD150224A91
S1130C102149234BCB58802109011943204BD15042
S1130C201D4A204BC0214905D1501B4B1A4A12685A
S1130C30C02109030A431A601B4B06221A701A4B7F
S1130C4000225A70184B184AD278D2B2D2B2111C70
S1130C501F220A40D2B2602149420A43D2B2D2B220
S1130C60DA70124B80221A700F4B00221A710E4B4D
S1130C7000225A71C0460C4B9B79DBB21A1C10231C
S1130C801340F8D0C046084B9B79DBB21A1C0C23E6
S1130C901340F8D1BD4680BD00E003403810000089
S1130CA03C10000044100000004006400060064074
S1130CB080B500AF054B064ADA81044B054ADA8158
S1130CC0024BD2221A80BD4680BDC046003005408A
S1130CD020C5FFFF28D9FFFF00000C000000000022
S1130CE001000000D2BD6C00C87FA3071F6A115029
S1130CF003000000000000080000000000000000E5
S9030410E8
